:100000000C9434000C943E000C943E000C943E0082
:100010000C943E000C943E000C943E000C943E0068
:100020000C943E000C943E000C943E000C943E0058
:100030000C943E000C943E000C943E000C943E0048
:100040000C943E000C943E000C943E000C943E0038
:100050000C943E000C943E000C943E000C943E0028
:100060000C9464000C943E0011241FBECFEFD8E026
:10007000DEBFCDBF0E94BC000C94BF000C940000FA
:10008000880F8093BA0085E48093BC00789408952B
:1000900080E480937C0087E880937A0008958770DD
:1000A000ECE7F0E09081987F892B8083EAE7F0E02D
:1000B00080818064808380917A0086FDFCCF80916E
:1000C00078009091790008951F920F920FB60F92C9
:1000D00011242F933F934F935F936F937F938F934D
:1000E0009F93AF93BF93EF93FF938091B900887F65
:1000F000883A89F028F4803641F0803731F020C00A
:10010000803CC1F0883CB1F01BC0ECEBF0E080819A
:10011000806C80831AC080E00E944F00969587957E
:10012000969587958093BB00ECEBF0E08081806C26
:1001300080830BC0ECEBF0E08081806C808305C095
:10014000ECEBF0E08081806C8083FF91EF91BF91B8
:10015000AF919F918F917F916F915F914F913F915F
:100160002F910F900FBE0F901F90189588E00E945E
:1001700040000E94480008950E94B600FFCFF89406
:02018000FFCFAF
:00000001FF
