S01400004C4142344553434C41564F322E73726563CE
S11300000C9434000C943E000C943E000C943E007E
S11300100C943E000C943E000C943E000C943E0064
S11300200C943E000C943E000C943E000C943E0054
S11300300C943E000C943E000C943E000C943E0044
S11300400C943E000C943E000C943E000C943E0034
S11300500C943E000C943E000C943E000C943E0024
S11300600C943E000C943E0011241FBECFEFD8E048
S1130070DEBFCDBF0E944A000C947D000C940000AA
S113008087B18F6087B984B18C7F84B985B183606F
S113009085B908950E94400090E018990FC02FEF91
S11300A030E782E0215030408040E1F700C000009A
S11300B0189904C09F5F9F70189BFECF19990FC0B9
S11300C02FEF30E782E0215030408040E1F700C05C
S11300D00000199904C091509F70199BFECF88B1FC
S11300E0807F892B88B92FEF31EE84E02150304096
S11100F08040E1F700C00000D0CFF894FFCFAD
S9030000FC
