S01300004C4142344D41455354524F2E73726563F3
S11300000C9434000C9449000C9449000C9449005D
S11300100C9449000C9449000C9449000C94490038
S11300200C9449000C9449000C9449000C94490028
S11300300C9449000C9449000C9449000C94490018
S11300400C9449000C9449000C9449000C94490008
S11300500C9449000C9449000C9449000C944900F8
S11300600C9449000C94490011241FBECFEFD8E032
S1130070DEBFCDBF11E0A0E0B1E0E8E1F4E002C0F2
S113008005900D92A831B107D9F70E94C5010C94CF
S11300900A020C94000080FF04C09BB190619BB9DC
S11300A003C09BB19F7E9BB981FF04C09BB190624A
S11300B09BB903C09BB19F7D9BB982FF04C09BB1D8
S11300C090649BB903C09BB19F7B9BB983FF04C021
S11300D09BB190689BB903C09BB19F779BB984FF88
S11300E004C095B1916095B903C095B19E7F95B94F
S11300F085FF04C095B1926095B903C095B19D7F09
S113010095B986FF04C095B1946095B903C095B1C3
S11301109B7F95B9882324F485B1886085B90895B7
S113012085B1877F85B908959BB19B7F9BB90E9458
S11301304B008BB188608BB985E08A95F1F700009C
S11301408BB1877F8BB98FE79EE30197F1F700C0EE
S1130150000008958AB18C6F8AB98BB18BB984B1D0
S11301608F6084B985B185B92FEF89EF90E0215074
S113017080409040E1F700C0000088E30E949400B2
S11301808FE19EE40197F1F700C000008EE00E9429
S113019094008FE39FE10197F1F700C0000081E034
S11301A00E9494008FE39FE10197F1F700C00000E3
S11301B086E00E94940008959BB194609BB90E94CC
S11301C04B008BB188608BB985E08A95F1F700000C
S11301D08BB1877F8BB98FE39FE10197F1F700C063
S11301E0000008950F931F93CF93DF938C01C0E019
S11301F0D0E003C00E94DC002196F801EC0FFD1F43
S113020080818111F7CFDF91CF911F910F910895D4
S1130210613021F481580E9494000895623019F4E9
S113022081540E949400089581E00E9494008FE319
S11302309FE10197F1F700C0000008951092B90002
S113024087E48093B80084E08093BC00089584EA36
S11302508093BC008091BC008823E4F7089584E96E
S11302608093BC008091BC0084FDFCCF08958093F2
S1130270BB0084E88093BC008091BC008823E4F731
S1130280089584E88093BC008091BC008823E4F73F
S11302908091BB0008950E941E010E94AA0061E0A3
S11302A081E00E94080180E091E00E94F2002FEFBB
S11302B087EA91E6215080409040E1F700C00000B9
S11302C008950F931F93CF93DF9300D000D0CDB741
S11302D0DEB70E94270180E10E9437010E942701B6
S11302E081E10E9437010E944101082F0E942F01E1
S11302F00E94270182E10E9437010E94270183E1C5
S11303000E9437010E944101182F0E942F010E9470
S1130310140161E081E00E9408018EE091E00E94F6
S1130320F2004AE050E0BE016F5F7F4F802F90E003
S11303300E94CA01CE0101960E94F20062E081E0AF
S11303400E94080183E191E00E94F2004AE050E03B
S1130350BE016F5F7F4F812F90E00E94CA01CE01E2
S113036001960E94F2002FEF83ED90E3215080402C
S11303709040E1F700C000000F900F900F900F9095
S1130380DF91CF911F910F9108950E944B010E941C
S11303906101FDCF4532510520F4423010F00C9438
S11303A0D501FB011082CB010895BB274A3031F4FB
S11303B0992322F4BDE2909581959F4F0C94E1011D
S11303C0BB27FB015527AA27880F991FAA1FA4172B
S11303D010F0A41B83955051B9F7A05DAA3308F01F
S11303E0A95DA193009779F7B111B1931192CB0153
S11303F00C94FA01DC01FC01672F71917723E1F77A
S1130400329704C07C916D9370836291AE17BF07DD
S10B0410C8F30895F894FFCF2E
S11304184D61657374726F206C6973746F00533126
S10B04283A200053323A20008F
S9030000FC
